:020000040800F2
:1000000000000520E92300086508000867080008CB
:10001000690800086B0800086D080008000000006F
:100020000000000000000000000000006F08000851
:100030007108000800000000730800087508000837
:10004000392400083924000839240008392400081C
:10005000392400083924000839240008392400080C
:1000600039240008392400083924000839240008FC
:1000700039240008392400083924000839240008EC
:1000800039240008392400083924000839240008DC
:1000900039240008392400083924000839240008CC
:1000A00039240008392400083924000839240008BC
:1000B00039240008392400083924000839240008AC
:1000C000392400083924000839240008392400089C
:1000D000392400083924000839240008392400088C
:1000E000392400083924000839240008392400087C
:1000F000392400083924000839240008392400086C
:10010000392400083924000839240008392400085B
:10011000392400083924000839240008392400084B
:10012000392400083924000839240008392400083B
:10013000392400083924000839240008392400082B
:10014000392400083924000839240008392400081B
:10015000392400083924000839240008392400080B
:1001600039240008392400083924000839240008FB
:100170003924000839240008392400080000000050
:1001800039240008392400083924000839240008DB
:1001900039240008392400083924000839240008CB
:1001A0003924000839240008000000000000000085
:1001B00010B5054C237833B9044B13B10448AFF3A1
:1001C00000800123237010BD080000200000000003
:1001D0009424000808B5034B1BB103490348AFF34F
:1001E000008008BD000000000C00002094240008DE
:1001F00053B94AB9002908BF00281CBF4FF0FF318E
:100200004FF0FF3000F072B9ADF1080C6DE904CE8B
:1002100000F006F8DDF804E0DDE9022304B07047E1
:100220002DE9F047089E04468846002B4BD18A42B0
:10023000154667D9B2FA82F24AB1C2F1200701FA33
:1002400002F320FA07F7954047EA030894404FEA83
:10025000154E230CB8FBFEF71FFA85FC0EFB178822
:1002600043EA084307FB0CF1994209D9EB1807F15F
:10027000FF3080F01B81994240F21881023F2B44ED
:100280005B1AA4B2B3FBFEF00EFB103344EA034446
:1002900000FB0CFCA44509D92C1900F1FF3380F0B8
:1002A0000781A44540F2048102382C4440EA07400B
:1002B000A4EB0C0400271EB1D4400023C6E9004380
:1002C0003946BDE8F0878B4209D9002E00F0EB805B
:1002D0000027C6E9000138463946BDE8F087B3FA81
:1002E00083F7002F47D18B4202D3824200F2FA807B
:1002F000841A61EB030301209846002EE0D0C6E982
:100300000048DDE702B9FFDEB2FA82F2002A40F0CF
:100310008F80491B4FEA154E1FFA85F80127B1FB64
:10032000FEFC230C0EFB1C1143EA014308FB0CF1FD
:10033000994207D9EB180CF1FF3002D2994200F232
:10034000CD808446591AA3B2B1FBFEF00EFB101407
:1003500043EA044408FB00F8A04507D92C1900F132
:10036000FF3302D2A04500F2B6801846A4EB080481
:1003700040EA0C409FE7C7F1200CBB4022FA0CFE7C
:100380004EEA030E01FA07F420FA0CF521FA0CF3F9
:100390004FEA1E482543B3FBF8F92C0C08FB193330
:1003A0001FFA8EFA44EA034309FB0AF49C4202FA5C
:1003B00007F200FA07F10BD91EEB030309F1FF3036
:1003C00080F087809C4240F28480A9F10209734446
:1003D0001B1BADB2B3FBF8F008FB103345EA034436
:1003E00000FB0AFAA24508D91EEB040400F1FF3312
:1003F0006BD2A24569D90238744440EA0940A0FB97
:100400000289A4EB0A044C45C2464B4654D351D052
:10041000002E69D0B1EB0A0564EB030404FA0CFC6E
:10042000FD40FC404CEA0505C6E90054002747E7BB
:10043000C2F1200320FA03F7954001FA02F021FAF5
:1004400003F34FEA154E3843010CB3FBFEF71FFAD6
:1004500085F80EFB173341EA034107FB08F38B4293
:1004600004FA02F407D9691807F1FF3C2FD28B4236
:100470002DD9023F2944CB1A81B2B3FBFEF00EFB0B
:10048000103341EA034100FB08F38B4207D9691896
:1004900000F1FF3C17D28B4215D902382944C91A02
:1004A00040EA07473BE73746304609E70746E7E6B5
:1004B0001846FBE64145ABD2B8EB020A69EB0E02E7
:1004C00001381346A4E76046E9E7184695E7674612
:1004D000D1E781467CE702382C4447E7ACF1020CB7
:1004E0002B442FE7384608E73746E9E6704700BF58
:1004F000F0B58FB0002409940A940B940C940D94D9
:100500005A4BDA6C42F00402DA64DA6C02F004024C
:100510000192019ADA6C42F08002DA64DA6C02F03D
:1005200080020292029ADA6C42F00102DA64DA6C1A
:1005300002F001020392039ADA6C42F02002DA64BC
:10054000DA6C02F020020492049ADA6C42F0100293
:10055000DA64DA6C02F010020592059ADA6C42F065
:100560000202DA64DA6C02F002020692069ADA6C8F
:1005700042F00802DA64DA6C02F008020792079A85
:10058000DA6C42F04002DA64DB6C03F0400308935B
:10059000089B01F0A1FE364F22464FF481413846B8
:1005A00001F045FE334D22464FF43151284601F00B
:1005B0003EFE4FF4005309930A940B9409A92E4868
:1005C00001F052FD802309930A940B9409A94FF07E
:1005D000904001F049FD4FF4704309930A940B9445
:1005E00009A9264801F040FD4FF4285309930A94C5
:1005F0000B9409A9224801F037FD4FF48143099378
:1006000001260A960B940C9409A9384601F02CFD9A
:100610004FF4404309930A940B9409A9194801F037
:1006200023FD4FF4815309930A940B9409A928469A
:1006300001F01AFD4FF4315309930A960B940C9470
:1006400009A9284601F010FD4FF4E853099302234D
:100650000A930B9403230C930A230D9309A94FF0DB
:10066000904001F001FD0FB0F0BD00BF001002404E
:100670000004004800180048000800480014004822
:1006800000100048000C004808B50948094B0360F9
:100690004FF4E123436000238360C36003610C22B5
:1006A000426183610362436200F081FC08BD00BFC8
:1006B000240000200080004070B50546FF23037031
:1006C000002408E0661C4FF40041364801F0A8FD04
:1006D000A8550134E4B2092C60D8092CF9D801A33B
:1006E00053F824F0C50600080D0700081D07000890
:1006F0002D0700083D0700084D0700085D070008AA
:100700006D0700087D0700088D070008661C4FF480
:100710000051254801F084FDA855DAE7661C4FF426
:100720008041204801F07CFDA855D2E7661C4FF4BB
:1007300000611D4801F074FDA855CAE7661C4FF41E
:100740000071194801F06CFDA855C2E7661C4FF412
:100750000051144801F064FDA855BAE7661C4FF437
:100760008051104801F05CFDA855B2E7661C4FF4BB
:1007700000410E4801F054FDA855AAE7661C4FF44D
:1007800080410A4801F04CFDA855A2E7661C802173
:100790004FF0904001F044FDA8559AE70A23EB7210
:1007A00070BD00BF0014004800100048000C004855
:1007B00030B5BBB0242200212AA801F063FE00243A
:1007C000249425942694279428948C22214601A8C9
:1007D00001F058FE1023299301222F929025319584
:1007E000022333933492052235924722369237936F
:1007F00038930623399329A800F0F8FC0F2324939B
:100800000323259326954FF480632793289421464C
:100810000DEB050000F0C4FF20230193149401A800
:1008200001F0ECF94FF4007001F00EFD3BB030BD6B
:1008300008B500F009FCFFF7BBFFFFF759FEFFF713
:1008400023FF064C2046FFF737FF4FF0FF330C2203
:100850002146034800F00CFBF3E700BF9C0000209A
:10086000240000207047FEE7FEE7FEE7FEE7704742
:100870007047704708B500F0F7FB08BD82B00A4B1F
:100880001A6E42F001021A661A6E02F0010200921C
:10089000009A9A6D42F080529A659B6D03F08053E6
:1008A0000193019B02B070470010024000B589B06F
:1008B0000023039304930593069307930268164B52
:1008C0009A4202D009B05DF804FB03F5C833DA6D33
:1008D00042F00102DA65DA6D02F001020192019A3A
:1008E000DA6C42F04002DA64DB6C03F040030293FE
:1008F000029B01F0F1FC4FF4C073039302230493B5
:1009000000230593032306930823079303A90348B1
:1009100001F0AAFBD6E700BF0080004000180048A5
:100920002DE9F0480446016883680269134342696F
:100930001343C26913430868A24A024013430B6081
:100940002268536823F44053E1680B435360A16964
:1009500022689D4B9A4201D0236A1943936823F47D
:1009600030630B4393602368984A934227D0984A98
:10097000934238D0974A93424ED0974A934261D0DF
:10098000964A934274D0904A934200F08A80102590
:100990008D4A934200F0AA80E369B3F5004F00F05E
:1009A0003581082D00F2BF81DFE815F07F01950148
:1009B0009F01BD01AA01BD01BD01BD01B40102F548
:1009C0005842D2F8882002F00302032A09D8DFE84F
:1009D00002F0020481060125DAE70425D8E708259C
:1009E000D6E71025D4E702F5E632D2F8882002F0E7
:1009F0000C020C2A0ED8DFE802F0070D0D0D090DD0
:100A00000D0D6F0D0D0D0B000025C1E70425BFE78F
:100A10000825BDE71025BBE702F5E432D2F88820AF
:100A200002F03002102A09D005D9202A56D0302AE7
:100A300006D10825ACE71AB90025A9E70425A7E7E0
:100A40001025A5E702F5E232D2F8882002F0C002B4
:100A5000402A09D005D9802A42D0C02A06D10825CB
:100A600096E71AB9002593E7042591E710258FE74B
:100A700002F5E032D2F8882002F44072B2F5807FAD
:100A80000BD007D9B2F5007F2CD0B2F5407F06D14C
:100A900008257DE71AB900257AE7042578E71025AF
:100AA00076E702F5C832D2F8882002F44062B2F547
:100AB000806F0BD007D9B2F5006F15D0B2F5406F3B
:100AC00006D1082564E71AB9002561E704255FE728
:100AD00010255DE702255BE7022559E7022557E768
:100AE000022555E7022553E7022551E7082D00F2BC
:100AF0001D81DFE815F00C001B0114001B01110023
:100B00001B011B011B0109004FF4004008E000F02D
:100B1000F7FE28B90020D9E000F0FCFAF9E73048E8
:100B2000626802EB4203834200F20281B0EB023FB3
:100B300000F20081082D66D8DFE805F00565206524
:100B400030656565580000F0DBFE0025070E0602E3
:100B5000626850082B4616EB000B47F1000C584614
:100B60006146FFF745FB03462846A3F540711D4A41
:100B7000914200F2E1802268D360A7E05608002588
:100B80002B46DFF864B04FF0000C1BEB06004CF175
:100B90000001FFF72DFB03462846E6E700F0BAFA0E
:100BA0000025070E0602626850082B4616EB000B64
:100BB00047F1000C58466146FFF71AFB03462846EA
:100BC000D3E700BFF369FFEF008000400038014029
:100BD0000044004000480040004C004000500040ED
:100BE0000024F400FFFC0F00000024F4500800274C
:100BF00000252B4610F5000047F10001FFF7F8FA39
:100C000003462846B1E701200023AEE7082D49D866
:100C1000DFE805F0051E2948344848483F0000F049
:100C20006FFE6268530803EB4003B3FBF2F39BB221
:100C30000020A3F110014FF6EF7291427ED89AB2D4
:100C400022F00F02C3F3420313432268D3603DE056
:100C500000F068FE6268530803EB4003B3FBF2F355
:100C60009BB20020E5E76268530803F1F47303F5D3
:100C70009043B3FBF2F39BB20020DAE700F04AFAAC
:100C80006268530803EB4003B3FBF2F39BB200200E
:100C9000CFE76268530803F58033B3FBF2F39BB2EE
:100CA0000020C6E701200023C3E700F029FE6368A7
:100CB00000EB5302B2FBF3F292B20020A2F110015A
:100CC0004FF6EF7399423BD82368DA600022226620
:100CD0006266BDE8F08800F025FE636800EB530211
:100CE000B2FBF3F292B20020E8E763685A0802F51B
:100CF000740202F51052B2FBF3F292B20020DDE76B
:100D000000F008FA636800EB5302B2FBF3F292B210
:100D10000020D3E763685A0802F50042B2FBF3F201
:100D200092B20020CAE701200022C7E70120CDE7E8
:100D30000120CBE70120C9E70120C7E70120C5E773
:100D40000120C3E7436A13F0010F06D0026853681D
:100D500023F40033816A0B435360436A13F0020F9C
:100D600006D00268536823F48033C16A0B43536092
:100D7000436A13F0040F06D00268536823F48023FB
:100D8000016B0B435360436A13F0080F06D00268EF
:100D9000536823F40043416B0B435360436A13F0E1
:100DA000100F06D00268936823F48053816B0B43C5
:100DB0009360436A13F0200F06D00268936823F40F
:100DC0000053C16B0B439360436A13F0400F0AD08A
:100DD0000268536823F48013016C0B435360036C67
:100DE000B3F5801F0BD0436A13F0800F06D0026862
:100DF000536823F40023816C0B43536070470268EF
:100E0000536823F4C003416C0B435360EBE72DE9B7
:100E1000F04105460F4616469846069C2B68DB694E
:100E200037EA03030CBF01230023B3421DD1B4F101
:100E3000FF3FF3D02CB100F01FF9A0EB0800A04257
:100E4000ECD92A68136823F4D07313602A68936876
:100E500023F001039360202385F8713085F8723008
:100E6000002385F87030032000E00020BDE8F08109
:100E70002DE9F04182B01E4690F87130DBB2202B94
:100E80004ED104460D46904600294ED0002A4ED041
:100E900090F87030012B4CD0012380F87030002383
:100EA0004367212380F8713000F0E6F80746A4F884
:100EB0005080A4F8528009E023682A781A85013509
:100EC000B4F85230013B9BB2A4F85230B4F852301F
:100ED0009BB2ABB100963B46002280212046FFF733
:100EE00096FF40BBA368B3F5805FE5D12369002B73
:100EF000E2D1226835F8023BC3F308031385DFE72C
:100F000000963B46002240212046FFF780FF034623
:100F100098B9202284F87120002284F8702000E023
:100F20000223184602B0BDE8F0810123F9E701234E
:100F3000F7E70223F5E70323F3E70323F1E730B5EF
:100F400083B004460023436700F096F80546236803
:100F50001B6813F0080F0ED123681B6813F0040FF1
:100F600017D1202384F8713084F87230002084F87F
:100F7000700003B030BD6FF07E4300930346002243
:100F80004FF400112046FFF742FF0028E4D0032071
:100F9000EFE76FF07E4300932B4600224FF4800171
:100FA0002046FFF734FF0028DBD00320E1E778B3C9
:100FB00010B5044690F871300BB3242384F87130D7
:100FC0002268136823F0010313602046FFF7A8FC92
:100FD000012813D0636ABBB92268536823F4904395
:100FE00053602268936823F02A0393602268136891
:100FF00043F0010313602046FFF7A1FF10BD80F806
:101000007030FFF753FCD8E72046FFF79BFEE3E77D
:101010000120704710B50446094B1868094BA3FB23
:101020000030800901F0A6F908B1012010BD0022AE
:1010300021464FF0FF3001F069F90020F6E700BFCC
:1010400000000020D34D621010B5032001F04CF9D0
:101050000020FFF7DFFF10B10124204610BD044639
:10106000FFF70CFCF9E70000024A13680133136034
:10107000704700BFA8000020014B1868704700BFF0
:10108000A800002030B583B00546204B9B6D13F0BF
:10109000805F0BD001F0D0F8B0F5007F17D0802D25
:1010A0001FD82DD0702D2DD000211BE0174CA36D23
:1010B00043F08053A365A36D03F080530193019B1C
:1010C00001F0BAF8A36D23F08053A365E4E7802D07
:1010D00003D9A02D03D9022104E0002102E001215F
:1010E00000E003210A4A136823F007030B4313604F
:1010F000136803F007038B4206D0012003B030BD14
:101100000221EFE70121EDE70020F7E700100240A0
:1011100000200240314A9368D26802F0030213F0C3
:101120000C030AD00C2B06D0042B1FD0082B20D088
:101130000020014610E0012AF6D1284A126812F078
:10114000080F0CD1254AD2F89420C2F30322244977
:1011500051F8221043B100200C2B0DD070471F4ACC
:101160001268C2F30312F2E70846F5E71D480021B2
:10117000F2E71D480021EFE7184BDA6802F003029E
:10118000DB68C3F302130133022A0AD0032A1AD000
:10119000B1FBF3F3114AD068C0F3062000FB03F063
:1011A00008E01048B0FBF3F30C4AD068C0F3062007
:1011B00000FB03F0094BDB68C3F3416301335B00C1
:1011C000B0FBF3F0CAE70848B0FBF3F3034AD0687A
:1011D000C0F3062000FB03F0ECE700BF0010024064
:1011E000C82400080024F40000127A00002800F04F
:1011F000C182F0B583B00446AC4B9D6805F00C0588
:10120000DE6806F00306036813F0100F5DD0E5B149
:101210000C2D18D0A369002B00F0B780A34A1368E7
:1012200043F001031360FFF727FF07469F4B1B683E
:1012300013F0020F40F09680FFF71EFFC01B02283C
:10124000F4D90323A2E2012EE4D1984B1B6813F0DA
:10125000020F03D0A369002B00F08F82206A934B0A
:101260001B6813F0080F5DD0904B1B6803F0F00370
:1012700098425ED9FFF706FF002840F080828B4B32
:101280001A6842F008021A601A6822F0F002216A15
:101290000A431A605A6822F47F42E16942EA012255
:1012A0005A60FFF737FF814B9B68C3F30313804AF3
:1012B000D35C03F01F03D8407E4B18600020FFF77B
:1012C000A9FE0346002840F06182236813F0010F55
:1012D0007AD0082D6FD00C2D6BD06368B3F5803FAA
:1012E00000F09180B3F5A02F00F093806F4B1A6847
:1012F00022F480321A601A6822F480221A6063682D
:10130000002B00F09380FFF7B7FE0746674B1B6882
:1013100013F4003F58D1FFF7AFFEC01B6428F5D986
:10132000032333E2614BD3F894301B0903F0F0033D
:101330009EE75E4B1A6842F008021A601A6822F0B3
:10134000F002216A0A431A605A6822F47F42E16976
:1013500042EA01225A60206AFFF794FE0028A0D0DA
:10136000012313E2514B1A6842F008021A601A680E
:1013700022F0F002216A0A431A605A6822F47F427E
:10138000E16942EA01225A609FE7484A136823F064
:1013900001031360FFF770FE0746444B1B6813F010
:1013A000020F92D0FFF768FEC01B0228F5D9032375
:1013B000ECE1032E91D13D4B1B6813F4003F03D0A9
:1013C0006368002B00F0DD81236813F0020F4FD01B
:1013D000042D3CD00C2D38D0E368002B75D0334A57
:1013E000136843F480731360FFF746FE06462F4BE5
:1013F0001B6813F4806F5FD1FFF73EFE801B02284D
:10140000F5D90323C2E1294A136843F480331360FA
:1014100075E703F18043A3F53C331A6842F4802258
:101420001A601A6842F480321A6068E7FFF724FEF7
:1014300007461E4B1B6813F4003FC5D0FFF71CFE88
:10144000C01B6428F5D90323A0E1022EC4D1174B99
:101450001B6813F4806F03D0E368002B00F09381C6
:10146000124A536823F0FE43216943EA0163536043
:10147000236813F0080F53D06369002B39D00B4A4F
:10148000D2F8943043F00103C2F89430FFF7F4FD32
:101490000646064BD3F8943013F0020F40D1FFF705
:1014A000EBFD801B0228F4D903236FE100100240FA
:1014B000B024000800000020B74A536823F0FE4320
:1014C000216943EA01635360D2E7B34A136823F406
:1014D00080731360FFF7D0FD0646AF4B1B6813F413
:1014E000806FC5D0FFF7C8FD801B0228F5D9032304
:1014F0004CE1A94AD2F8943023F00103C2F89430A9
:10150000FFF7BAFD0646A44BD3F8943013F0020F50
:1015100006D0FFF7B1FD801B0228F4D9032335E183
:10152000236813F0040F7AD09B4B9B6D13F0805F00
:101530000BD1994B9A6D42F080529A659B6D03F0E6
:1015400080530193019B012600E00026934B1B680A
:1015500013F4807F26D0A368012B37D0052B3DD014
:101560008D4BD3F8902022F00102C3F89020D3F8DD
:10157000902022F00402C3F89020A368002B3BD0F7
:10158000FFF77AFD0746844BD3F8903013F0020F33
:1015900044D1FFF771FDC01B41F288339842F2D964
:1015A0000323F3E07D4A136843F480731360FFF76D
:1015B00063FD0746794B1B6813F4807FCBD1FFF79F
:1015C0005BFDC01B0228F5D90323DFE0724AD2F885
:1015D000903043F00103C2F89030CEE76E4BD3F861
:1015E000902042F00402C3F89020D3F8902042F0FB
:1015F0000102C3F89020C0E7FFF73EFD0746664BA7
:10160000D3F8903013F0020F08D0FFF735FDC01B60
:1016100041F288339842F2D90323B7E0E6B9236850
:1016200013F0200F35D0636AE3B15B4AD2F89830EB
:1016300043F00103C2F89830FFF71EFD0646564BF3
:10164000D3F8983013F0020F23D1FFF715FD801B5C
:101650000228F4D9032399E04F4A936D23F0805375
:101660009365DCE74C4AD2F8983023F00103C2F8C6
:101670009830FFF701FD0646474BD3F8983013F03A
:10168000020F06D0FFF7F8FC801B0228F4D90323D1
:101690007CE0A36A002B78D00C2D7AD0022B23D0CB
:1016A0003D4B1A6822F080721A601B6813F0205FAD
:1016B00004D1394AD36823F00303D360364AD36890
:1016C00023F0887323F48033D360FFF7D5FC0446FE
:1016D000314B1B6813F0007F4AD0FFF7CDFC001B95
:1016E0000228F5D9032351E02B4A136823F08073B5
:1016F0001360FFF7C1FC0546274B1B6813F0007F02
:1017000006D0FFF7B9FC401B0228F5D903233DE0C2
:10171000236B5A1E636B1B0243EA0213E26A1343F4
:10172000E26B5208013A43EA4253226C5208013AF2
:1017300043EA4263A26B43EAC263174AD360136869
:1017400043F080731360D36843F08073D360FFF776
:1017500093FC0446104B1B6813F0007F06D1FFF783
:101760008BFC001B0228F5D903230FE000230DE0BA
:1017700000230BE0012318467047012306E00123F4
:1017800004E0012302E0012300E00023184603B037
:10179000F0BD0123FAE700BF0010024000700040D6
:1017A000002800F09A8070B504464E4B1B6803F089
:1017B00007038B420CD24B4A136823F007030B43F9
:1017C0001360136803F007038B4201D0012070BD42
:1017D0000D46236813F0010F39D06368032B09D03D
:1017E000022B26D063BB404A126812F0020F06D1CA
:1017F0000120ECE73C4A126812F0007F6FD03A49B2
:101800008A6822F0030213438B60FFF735FC06461B
:10181000354B9B6803F00C036268B3EB820F16D064
:10182000FFF72AFC801B41F288339842F0D903204D
:10183000CDE72D4A126812F4003FE0D10120C6E73F
:10184000294A126812F4806FD9D10120BFE72368BA
:1018500013F0020F06D0244A936823F0F003A16826
:101860000B4393601F4B1B6803F00703AB420CD97B
:101870001C4A136823F007032B431360136803F01B
:101880000703AB4201D00120A1E7236813F0040F46
:1018900006D0154A936823F4E063E1680B43936034
:1018A000236813F0080F07D00F4A936823F460539E
:1018B000216943EAC1039360FFF72CFC0A4B9B6844
:1018C000C3F30313094AD35C03F01F03D840084B4A
:1018D00018600020FFF79EFB79E701207047012088
:1018E00075E700BF0020024000100240B02400084D
:1018F00000000020014B1868704700BF0000002066
:1019000008B5FFF7F7FF054B9B68C3F30223044AB2
:10191000D35C03F01F03D84008BD00BF0010024095
:10192000C024000808B5FFF7E5FF054B9B68C3F32B
:10193000C223044AD35C03F01F03D84008BD00BF94
:1019400000100240C0240008F8B5594BDB6813F0C2
:10195000030F18D0564BDB6803F003030268934271
:1019600002D001252846F8BD002A00F09F80504B88
:10197000DB68C3F3021301334268934201D00125AF
:10198000F0E700251AE00368022B58D0032B5DD046
:10199000012B01D001250FE0454A126812F0020F19
:1019A00060D0434DEA6822F073024468013C43EA88
:1019B00004131343EB600025002DD3D10F460446DA
:1019C0003B4A136823F080631360FFF755FB06461C
:1019D000374B1B6813F0006F05D0FFF74DFB801BE2
:1019E0000228F5D90325002DBCD1002F3CD1304968
:1019F0000B6923F0784323F4FE43A068E268D20623
:101A000042EA002213430B61294A136843F08063C2
:101A10001360FFF731FB0646254B1B6813F0006F80
:101A200005D1FFF729FB801B0228F5D90325002DDE
:101A300098D11F4A1369A1690B43136192E71C4AAD
:101A4000126812F4806FACD10125B5E7184A12680C
:101A500012F4003FA5D1164A126812F4802FA0D1CB
:101A60000125A9E70125A7E7012F0FD0104802693A
:101A700022F0C06222F4FE42A16863695B08013B68
:101A80005B0643EA012313430361BDE7084802698B
:101A900022F4C00222F4FE42A16823695B08013BE4
:101AA0005B0543EA012313430361ADE7012559E7D1
:101AB00000100240F8B5504BDB6813F0030F18D04C
:101AC0004D4BDB6803F003030268934202D001250B
:101AD0002846F8BD002A00F08D80474BDB68C3F331
:101AE000021301334268934201D00125F0E700253B
:101AF0001AE00368022B58D0032B5DD0012B01D0D4
:101B000001250FE03C4A126812F0020F60D03A4DF6
:101B1000EA6822F073024468013C43EA0413134369
:101B2000EB600025002DD3D10F460446324A1368DE
:101B300023F080531360FFF79FFA06462E4B1B6875
:101B400013F0005F05D0FFF797FA801B0228F5D944
:101B50000325002DBCD1002F3CD127494B6923F030
:101B6000784323F4FE43A068E268D20642EA0022EA
:101B700013434B61204A136843F080531360FFF70F
:101B80007BFA06461C4B1B6813F0005F05D1FFF77C
:101B900073FA801B0228F5D90325002D98D1164A27
:101BA000536961690B43536192E7134A126812F457
:101BB000806FACD10125B5E70F4A126812F4003FDF
:101BC000A5D10D4A126812F4802FA0D10125A9E7F2
:101BD0000125A7E70848426922F0C06222F4FE42CC
:101BE000A16823695B08013B5B0643EA01231343B9
:101BF0004361BFE701256BE7001002402DE9F0418A
:101C000082B00446036813F4006F2FD0836EB3F5DF
:101C1000800F25D008D9B3F5000F10D0B3F5400FD1
:101C200040F09980002610E0002B40F094800021C5
:101C30000430FFF789FE06463EB1374618E05E4A9B
:101C4000D36843F48033D36000265B4AD2F88830EF
:101C500023F44003A16E0B43C2F88830002707E04D
:101C600000212030FFF726FF0646E5E700273E4625
:101C7000236813F4805F15D0E36EB3F1807F7AD0D0
:101C80006CD9B3F1007F70D0B3F1407F7AD1002ED0
:101C90007BD1494AD2F8883023F04073E16E0B4380
:101CA000C2F88830236813F4003F00F08E80424B66
:101CB0009B6D13F0805F6AD13F4B9A6D42F080526A
:101CC0009A659B6D03F080530193019B4FF00108CF
:101CD0003A4A136843F480731360FFF7CDF9054661
:101CE000364B1B6813F4807F05D1FFF7C5F9401B05
:101CF0000228F5D90326002E62D12F4BD3F890305D
:101D000013F4407316D0D4F888209A4212D02A4A8D
:101D1000D2F8903023F44073D2F8901041F480311F
:101D2000C2F89010D2F8901021F48031C2F89010CF
:101D3000C2F8903013F0010F2CD1002E40F05181E9
:101D40001D4AD2F8903023F44073D4F888100B4326
:101D5000C2F8903035E001273E4689E793B900216B
:101D6000201DFFF7F1FD064691E7134AD36843F4BF
:101D70008033D3608BE7002104F12000FFF79AFE47
:101D8000064684E701273E468CE737468AE74FF050
:101D900000089DE7FFF770F90546074BD3F8903030
:101DA00013F0020FC9D1FFF767F9401B41F28833E6
:101DB0009842F2D90326C0E70010024000700040AC
:101DC0003746B8F1000F40F00E81236813F0010F81
:101DD00008D0A44AD2F8883023F00303A16B0B4348
:101DE000C2F88830236813F0020F08D09D4AD2F859
:101DF000883023F00C03E16B0B43C2F88830236872
:101E000013F0040F08D0974AD2F8883023F030033B
:101E1000216C0B43C2F88830236813F0080F08D0F8
:101E2000904AD2F8883023F0C003616C0B43C2F8AB
:101E30008830236813F0100F08D08A4AD2F888300F
:101E400023F44073A16C0B43C2F88830236813F06D
:101E5000200F08D0834AD2F8883023F44063E16C25
:101E60000B43C2F88830236813F4007F08D07D4A02
:101E7000D2F8883023F44023216E0B43C2F8883017
:101E8000236813F4806F08D0764AD2F8883023F4A0
:101E90004013616E0B43C2F88830236813F0400F83
:101EA00008D0704AD2F8883023F44053216D0B4398
:101EB000C2F88830236813F0800F08D0694AD2F83E
:101EC000883023F44043616D0B43C2F888302368A7
:101ED00013F4807F08D0634AD2F8883023F440336B
:101EE000A16D0B43C2F88830236813F4801F08D01B
:101EF0005C4AD2F89C3023F00303E16D0B43C2F837
:101F00009C30236813F4005F0FD0564AD2F8883013
:101F100023F04063216F0B43C2F88830236FB3F185
:101F2000006F66D0B3F1806F68D0236813F4002F80
:101F30000FD04C4AD2F8883023F04063616F0B43D6
:101F4000C2F88830636FB3F1006F5FD0B3F1806F78
:101F500061D0236813F4802F0FD0424AD2F8883022
:101F600023F04063A16F0B43C2F88830A36FB3F135
:101F7000006F58D0B3F1806F5AD0236813F4804FAC
:101F80000FD0384AD2F8883023F04053E16F0B432A
:101F9000C2F88830E36FB3F1805F51D0B3F1005FD6
:101FA00056D0236813F4004F09D02E4AD2F8883057
:101FB00023F08043D4F880100B43C2F888302368A4
:101FC00013F4803F09D0274AD2F8883023F0004329
:101FD000D4F884100B43C2F88830384602B0BDE80C
:101FE000F0813746EDE61F4A936D23F080539365E9
:101FF000EBE6D36843F48013D36096E70121201DFC
:10200000FFF7A2FC002890D007468EE7D36843F480
:102010008013D3609DE70121201DFFF795FC002868
:1020200097D0074695E7D36843F48013D360A4E7BD
:102030000121201DFFF788FC00289ED007469CE761
:102040000221201DFFF780FC0028AAD00746A8E740
:10205000022104F12000FFF72DFD0028A1D0074642
:102060009FE700BF00100240F0B482B0002336E0CA
:10207000072400E00024B4403C430235644E46F897
:102080002540644C2568D44304EA05064F6817F4DC
:10209000803F01D042EA05065E4D2E606D6804EA7D
:1020A00005064F6817F4003F01D042EA0506594D76
:1020B0006E60AD6804EA05064F6817F4801F01D012
:1020C00042EA0506534DAE60ED682C404E6816F4AA
:1020D000001F01D042EA05044E4AD46001330A6869
:1020E00032FA03F400F0918001249C402240F5D0A4
:1020F0004D68022D01D0122D10D1DE08083650F89F
:1021000026C003F00705AF000F25BD402CEA050CE3
:102110000D69BD4045EA0C0540F8265006685F0091
:102120000325BD40ED4305EA060C4E6806F00306A4
:10213000BE4046EA0C0606604E6806F1FF3CBCF164
:10214000010F03D9112E01D0122E10D1866805EA95
:10215000060CCE68BE4046EA0C068660466826EA53
:1021600004044E68C6F300169E4026434660C468C9
:1021700025408C68BC402C43C4604C6814F0805FE0
:10218000ACD0254C256E45F001052566246E04F083
:1021900001040194019C9D08AE1C1D4C54F826704E
:1021A00003F00304A6000F24B44027EA0407B0F1AB
:1021B000904F3FF45FAF194CA0421AD004F58064F1
:1021C000A04218D004F58064A04216D004F58064C3
:1021D000A04214D004F58064A04212D004F58064BB
:1021E000A04210D004F58064A0423FF441AF08241F
:1021F00041E701243FE702243DE703243BE70424B1
:1022000039E7052437E7062435E702B0F0BC70470C
:10221000000001400004014000100240000400489A
:102220000369194201D100207047012070470AB9A3
:102230008162704781617047024B186800F4C0608A
:10224000704700BF00700040B0F5007F0FD01F4BFB
:102250001B6803F4C063B3F5806F34D01B4A136866
:1022600023F4C06343F48063136000207047174B6E
:102270001B6803F4C063B3F5007F22D0134A1368D0
:1022800023F4C06343F400731360114B1A683223C4
:1022900003FB02F30F4AA2FB03239B0C013300E074
:1022A000013B0A4A526912F4806F01D0002BF7D12A
:1022B000064B5B6913F4806F01D100207047032047
:1022C0007047002070470020704700BF007000403A
:1022D0000000002083DE1B43024A536843F400736E
:1022E0005360704700700040074AD36823F4E063EE
:1022F0001B041B0C000200F4E060184340F0BF60B8
:1023000040F40030D060704700ED00E030B4174B6F
:10231000DB68C3F30223C3F10704042C28BF0424A1
:102320001D1D062D18D9033B4FF0FF3505FA04F4A7
:1023300021EA0401994005FA03F322EA0303194351
:1023400000280BDB0901C9B200F1604000F56140D3
:1023500080F8001330BC70470023E5E700F00F0061
:102360000901C9B2024B1954F4E700BF00ED00E0C7
:1023700014ED00E00138B0F1807F0AD2064B5860BE
:10238000064AF02182F823100020986007221A6084
:1023900070470120704700BF10E000E000ED00E052
:1023A0000F49D1F8883043F47003C1F888300D4BE1
:1023B0001A6842F001021A60002098601A6822F040
:1023C000A85222F410221A604FF48052DA601A6880
:1023D00022F480221A6098614FF000638B6070478E
:1023E00000ED00E000100240DFF834D0002103E0EF
:1023F0000C4B5B58435004310B480C4B42189A422B
:10240000F6D30B4A02E0002342F8043B094B9A4200
:10241000F9D3FFF7C5FF00F011F8FEF709FAFEE760
:102420000000052010250008000000200800002002
:1024300008000020AC000020FEE7000070B50D4E43
:102440000D4CA41BA4100025A54209D10B4E0C4C29
:1024500000F020F8A41BA4100025A54205D170BDF2
:1024600056F8253098470135EEE756F8253098475D
:102470000135F2E7002500080025000800250008C6
:102480000425000802440346934200D1704703F834
:10249000011BF9E7F8B500BFF8BC08BC9E467047C1
:1024A000F8B500BFF8BC08BC9E46704700000000AD
:1024B00000000000000000000102030406070809F4
:1024C0000000000001020304A0860100400D03008B
:1024D000801A060000350C0040420F0080841E0068
:1024E00000093D0000127A000024F40000366E015D
:0824F0000048E801006CDC0269
:0824F80028DDFF7F0100000058
:08250000D501000800000000F5
:08250800B10100080000000011
:0825100000093D00000000007D
:04000005080023E9E3
:00000001FF
